{
  "contractName": "Token",
  "abi": [
    {
      "inputs": [],
      "stateMutability": "nonpayable",
      "type": "constructor"
    },
    {
      "anonymous": false,
      "inputs": [
        {
          "indexed": true,
          "internalType": "address",
          "name": "owner",
          "type": "address"
        },
        {
          "indexed": true,
          "internalType": "address",
          "name": "approved",
          "type": "address"
        },
        {
          "indexed": true,
          "internalType": "uint256",
          "name": "tokenId",
          "type": "uint256"
        }
      ],
      "name": "Approval",
      "type": "event"
    },
    {
      "anonymous": false,
      "inputs": [
        {
          "indexed": true,
          "internalType": "address",
          "name": "owner",
          "type": "address"
        },
        {
          "indexed": true,
          "internalType": "address",
          "name": "operator",
          "type": "address"
        },
        {
          "indexed": false,
          "internalType": "bool",
          "name": "approved",
          "type": "bool"
        }
      ],
      "name": "ApprovalForAll",
      "type": "event"
    },
    {
      "anonymous": false,
      "inputs": [
        {
          "indexed": true,
          "internalType": "address",
          "name": "from",
          "type": "address"
        },
        {
          "indexed": true,
          "internalType": "address",
          "name": "to",
          "type": "address"
        },
        {
          "indexed": true,
          "internalType": "uint256",
          "name": "tokenId",
          "type": "uint256"
        }
      ],
      "name": "Transfer",
      "type": "event"
    },
    {
      "inputs": [
        {
          "internalType": "address",
          "name": "to",
          "type": "address"
        },
        {
          "internalType": "uint256",
          "name": "tokenId",
          "type": "uint256"
        }
      ],
      "name": "approve",
      "outputs": [],
      "stateMutability": "nonpayable",
      "type": "function"
    },
    {
      "inputs": [
        {
          "internalType": "address",
          "name": "owner",
          "type": "address"
        }
      ],
      "name": "balanceOf",
      "outputs": [
        {
          "internalType": "uint256",
          "name": "",
          "type": "uint256"
        }
      ],
      "stateMutability": "view",
      "type": "function",
      "constant": true
    },
    {
      "inputs": [],
      "name": "baseURI",
      "outputs": [
        {
          "internalType": "string",
          "name": "",
          "type": "string"
        }
      ],
      "stateMutability": "view",
      "type": "function",
      "constant": true
    },
    {
      "inputs": [
        {
          "internalType": "uint256",
          "name": "tokenId",
          "type": "uint256"
        }
      ],
      "name": "getApproved",
      "outputs": [
        {
          "internalType": "address",
          "name": "",
          "type": "address"
        }
      ],
      "stateMutability": "view",
      "type": "function",
      "constant": true
    },
    {
      "inputs": [
        {
          "internalType": "address",
          "name": "owner",
          "type": "address"
        },
        {
          "internalType": "address",
          "name": "operator",
          "type": "address"
        }
      ],
      "name": "isApprovedForAll",
      "outputs": [
        {
          "internalType": "bool",
          "name": "",
          "type": "bool"
        }
      ],
      "stateMutability": "view",
      "type": "function",
      "constant": true
    },
    {
      "inputs": [],
      "name": "name",
      "outputs": [
        {
          "internalType": "string",
          "name": "",
          "type": "string"
        }
      ],
      "stateMutability": "view",
      "type": "function",
      "constant": true
    },
    {
      "inputs": [
        {
          "internalType": "uint256",
          "name": "tokenId",
          "type": "uint256"
        }
      ],
      "name": "ownerOf",
      "outputs": [
        {
          "internalType": "address",
          "name": "",
          "type": "address"
        }
      ],
      "stateMutability": "view",
      "type": "function",
      "constant": true
    },
    {
      "inputs": [
        {
          "internalType": "address",
          "name": "from",
          "type": "address"
        },
        {
          "internalType": "address",
          "name": "to",
          "type": "address"
        },
        {
          "internalType": "uint256",
          "name": "tokenId",
          "type": "uint256"
        }
      ],
      "name": "safeTransferFrom",
      "outputs": [],
      "stateMutability": "nonpayable",
      "type": "function"
    },
    {
      "inputs": [
        {
          "internalType": "address",
          "name": "from",
          "type": "address"
        },
        {
          "internalType": "address",
          "name": "to",
          "type": "address"
        },
        {
          "internalType": "uint256",
          "name": "tokenId",
          "type": "uint256"
        },
        {
          "internalType": "bytes",
          "name": "_data",
          "type": "bytes"
        }
      ],
      "name": "safeTransferFrom",
      "outputs": [],
      "stateMutability": "nonpayable",
      "type": "function"
    },
    {
      "inputs": [
        {
          "internalType": "address",
          "name": "operator",
          "type": "address"
        },
        {
          "internalType": "bool",
          "name": "approved",
          "type": "bool"
        }
      ],
      "name": "setApprovalForAll",
      "outputs": [],
      "stateMutability": "nonpayable",
      "type": "function"
    },
    {
      "inputs": [
        {
          "internalType": "bytes4",
          "name": "interfaceId",
          "type": "bytes4"
        }
      ],
      "name": "supportsInterface",
      "outputs": [
        {
          "internalType": "bool",
          "name": "",
          "type": "bool"
        }
      ],
      "stateMutability": "view",
      "type": "function",
      "constant": true
    },
    {
      "inputs": [],
      "name": "symbol",
      "outputs": [
        {
          "internalType": "string",
          "name": "",
          "type": "string"
        }
      ],
      "stateMutability": "view",
      "type": "function",
      "constant": true
    },
    {
      "inputs": [
        {
          "internalType": "uint256",
          "name": "index",
          "type": "uint256"
        }
      ],
      "name": "tokenByIndex",
      "outputs": [
        {
          "internalType": "uint256",
          "name": "",
          "type": "uint256"
        }
      ],
      "stateMutability": "view",
      "type": "function",
      "constant": true
    },
    {
      "inputs": [
        {
          "internalType": "address",
          "name": "owner",
          "type": "address"
        },
        {
          "internalType": "uint256",
          "name": "index",
          "type": "uint256"
        }
      ],
      "name": "tokenOfOwnerByIndex",
      "outputs": [
        {
          "internalType": "uint256",
          "name": "",
          "type": "uint256"
        }
      ],
      "stateMutability": "view",
      "type": "function",
      "constant": true
    },
    {
      "inputs": [
        {
          "internalType": "uint256",
          "name": "tokenId",
          "type": "uint256"
        }
      ],
      "name": "tokenURI",
      "outputs": [
        {
          "internalType": "string",
          "name": "",
          "type": "string"
        }
      ],
      "stateMutability": "view",
      "type": "function",
      "constant": true
    },
    {
      "inputs": [],
      "name": "totalSupply",
      "outputs": [
        {
          "internalType": "uint256",
          "name": "",
          "type": "uint256"
        }
      ],
      "stateMutability": "view",
      "type": "function",
      "constant": true
    },
    {
      "inputs": [
        {
          "internalType": "address",
          "name": "from",
          "type": "address"
        },
        {
          "internalType": "address",
          "name": "to",
          "type": "address"
        },
        {
          "internalType": "uint256",
          "name": "tokenId",
          "type": "uint256"
        }
      ],
      "name": "transferFrom",
      "outputs": [],
      "stateMutability": "nonpayable",
      "type": "function"
    },
    {
      "inputs": [
        {
          "internalType": "uint256",
          "name": "_tokenId",
          "type": "uint256"
        }
      ],
      "name": "mintTokens",
      "outputs": [
        {
          "internalType": "bool",
          "name": "success",
          "type": "bool"
        }
      ],
      "stateMutability": "nonpayable",
      "type": "function"
    },
    {
      "inputs": [
        {
          "internalType": "uint256",
          "name": "_tokenId",
          "type": "uint256"
        }
      ],
      "name": "OwnerOf",
      "outputs": [
        {
          "internalType": "address",
          "name": "",
          "type": "address"
        }
      ],
      "stateMutability": "view",
      "type": "function",
      "constant": true
    },
    {
      "inputs": [
        {
          "internalType": "uint256",
          "name": "_tokenId",
          "type": "uint256"
        }
      ],
      "name": "checkTokenExistance",
      "outputs": [
        {
          "internalType": "bool",
          "name": "",
          "type": "bool"
        }
      ],
      "stateMutability": "view",
      "type": "function",
      "constant": true
    },
    {
      "inputs": [],
      "name": "tokenName",
      "outputs": [
        {
          "internalType": "string",
          "name": "",
          "type": "string"
        }
      ],
      "stateMutability": "view",
      "type": "function",
      "constant": true
    },
    {
      "inputs": [],
      "name": "tokenSymbol",
      "outputs": [
        {
          "internalType": "string",
          "name": "",
          "type": "string"
        }
      ],
      "stateMutability": "view",
      "type": "function",
      "constant": true
    },
    {
      "inputs": [
        {
          "internalType": "address",
          "name": "_owner",
          "type": "address"
        }
      ],
      "name": "balanceOfToken",
      "outputs": [
        {
          "internalType": "uint256",
          "name": "",
          "type": "uint256"
        }
      ],
      "stateMutability": "view",
      "type": "function",
      "constant": true
    },
    {
      "inputs": [
        {
          "internalType": "uint256",
          "name": "_tokenId",
          "type": "uint256"
        }
      ],
      "name": "ownerOfToken",
      "outputs": [
        {
          "internalType": "address",
          "name": "",
          "type": "address"
        }
      ],
      "stateMutability": "view",
      "type": "function",
      "constant": true
    },
    {
      "inputs": [
        {
          "internalType": "address",
          "name": "_to",
          "type": "address"
        },
        {
          "internalType": "uint256",
          "name": "_tokenId",
          "type": "uint256"
        }
      ],
      "name": "_approveAddress",
      "outputs": [],
      "stateMutability": "nonpayable",
      "type": "function"
    },
    {
      "inputs": [
        {
          "internalType": "uint256",
          "name": "_tokenId",
          "type": "uint256"
        }
      ],
      "name": "GetApproved",
      "outputs": [
        {
          "internalType": "address",
          "name": "",
          "type": "address"
        }
      ],
      "stateMutability": "view",
      "type": "function",
      "constant": true
    },
    {
      "inputs": [
        {
          "internalType": "address",
          "name": "_operater",
          "type": "address"
        },
        {
          "internalType": "bool",
          "name": "_approved",
          "type": "bool"
        }
      ],
      "name": "SetApprovalForAll",
      "outputs": [],
      "stateMutability": "nonpayable",
      "type": "function"
    },
    {
      "inputs": [
        {
          "internalType": "address",
          "name": "_owner",
          "type": "address"
        },
        {
          "internalType": "address",
          "name": "_operator",
          "type": "address"
        }
      ],
      "name": "IsApprovedForAll",
      "outputs": [
        {
          "internalType": "bool",
          "name": "",
          "type": "bool"
        }
      ],
      "stateMutability": "view",
      "type": "function",
      "constant": true
    },
    {
      "inputs": [
        {
          "internalType": "address",
          "name": "_from",
          "type": "address"
        },
        {
          "internalType": "address",
          "name": "_to",
          "type": "address"
        },
        {
          "internalType": "uint256",
          "name": "_tokenId",
          "type": "uint256"
        }
      ],
      "name": "TransferFrom",
      "outputs": [],
      "stateMutability": "nonpayable",
      "type": "function"
    },
    {
      "inputs": [
        {
          "internalType": "address",
          "name": "_from",
          "type": "address"
        },
        {
          "internalType": "address",
          "name": "_to",
          "type": "address"
        },
        {
          "internalType": "uint256",
          "name": "_tokenId",
          "type": "uint256"
        }
      ],
      "name": "SafeTransferFrom",
      "outputs": [],
      "stateMutability": "nonpayable",
      "type": "function"
    },
    {
      "inputs": [
        {
          "internalType": "address",
          "name": "_to",
          "type": "address"
        },
        {
          "internalType": "uint256",
          "name": "_tokenId",
          "type": "uint256"
        }
      ],
      "name": "SafeMint",
      "outputs": [],
      "stateMutability": "nonpayable",
      "type": "function"
    },
    {
      "inputs": [
        {
          "internalType": "uint256",
          "name": "_tokenId",
          "type": "uint256"
        }
      ],
      "name": "burnToken",
      "outputs": [],
      "stateMutability": "nonpayable",
      "type": "function"
    }
  ],
  "bytecode": "0x60806040523480156200001157600080fd5b506040518060400160405280600b81526020017f4c61756e63684e6f6465730000000000000000000000000000000000000000008152506040518060400160405280600381526020017f4c4e730000000000000000000000000000000000000000000000000000000000815250620000bb6301ffc9a77c010000000000000000000000000000000000000000000000000000000002620001ac640100000000026401000000009004565b8160069080519060200190620000d3929190620002d1565b508060079080519060200190620000ec929190620002d1565b506200012a6380ac58cd7c010000000000000000000000000000000000000000000000000000000002620001ac640100000000026401000000009004565b62000167635b5e139f7c010000000000000000000000000000000000000000000000000000000002620001ac640100000000026401000000009004565b620001a463780e9d637c010000000000000000000000000000000000000000000000000000000002620001ac640100000000026401000000009004565b505062000377565b63ffffffff7c010000000000000000000000000000000000000000000000000000000002817bffffffffffffffffffffffffffffffffffffffffffffffffffffffff1916141562000265576040517f08c379a000000000000000000000000000000000000000000000000000000000815260040180806020018281038252601c8152602001807f4552433136353a20696e76616c696420696e746572666163652069640000000081525060200191505060405180910390fd5b6001600080837bffffffffffffffffffffffffffffffffffffffffffffffffffffffff19167bffffffffffffffffffffffffffffffffffffffffffffffffffffffff1916815260200190815260200160002060006101000a81548160ff02191690831515021790555050565b828054600181600116156101000203166002900490600052602060002090601f016020900481019282601f106200031457805160ff191683800117855562000345565b8280016001018555821562000345579182015b828111156200034457825182559160200191906001019062000327565b5b50905062000354919062000358565b5090565b5b808211156200037357600081600090555060010162000359565b5090565b61344380620003876000396000f3fe608060405234801561001057600080fd5b506004361061020d576000357c0100000000000000000000000000000000000000000000000000000000900480637194be721161012c578063b88d4fde116100bf578063c87b56dd1161008e578063c87b56dd14610cd3578063cf9b62d914610d7a578063e985e9c514610dd2578063fb6cba4814610e4c5761020d565b8063b88d4fde14610ab0578063b99152d014610bb5578063c0d84ce514610c0d578063c57ac5d614610c7b5761020d565b8063908a5270116100fb578063908a52701461092b57806395d89b411461099957806397304ced14610a1c578063a22cb46514610a605761020d565b80637194be72146107de5780637b47ec1a1461082c5780637b61c3201461085a578063800b3539146108dd5761020d565b80632f745c59116101a45780636c02a931116101735780636c02a9311461063c5780636c0360eb146106bf5780636f0a64a91461074257806370a08231146107865761020d565b80632f745c59146104d257806342842e0e146105345780634f6ccce7146105a25780636352211e146105e45761020d565b806311fb3e60116101e057806311fb3e601461039e578063141cddab146103ee57806318160ddd1461044657806323b872dd146104645761020d565b806301ffc9a71461021257806306fdde0314610275578063081812fc146102f8578063095ea7b314610350575b600080fd5b61025d6004803603602081101561022857600080fd5b8101908080357bffffffffffffffffffffffffffffffffffffffffffffffffffffffff19169060200190929190505050610ec6565b60405180821515815260200191505060405180910390f35b61027d610f2d565b6040518080602001828103825283818151815260200191508051906020019080838360005b838110156102bd5780820151818401526020810190506102a2565b50505050905090810190601f1680156102ea5780820380516001836020036101000a031916815260200191505b509250505060405180910390f35b6103246004803603602081101561030e57600080fd5b8101908080359060200190929190505050610fcf565b604051808273ffffffffffffffffffffffffffffffffffffffff16815260200191505060405180910390f35b61039c6004803603604081101561036657600080fd5b81019080803573ffffffffffffffffffffffffffffffffffffffff1690602001909291908035906020019092919050505061106a565b005b6103ec600480360360408110156103b457600080fd5b81019080803573ffffffffffffffffffffffffffffffffffffffff1690602001909291908035151590602001909291905050506111ae565b005b61041a6004803603602081101561040457600080fd5b81019080803590602001909291905050506111bc565b604051808273ffffffffffffffffffffffffffffffffffffffff16815260200191505060405180910390f35b61044e6111ce565b6040518082815260200191505060405180910390f35b6104d06004803603606081101561047a57600080fd5b81019080803573ffffffffffffffffffffffffffffffffffffffff169060200190929190803573ffffffffffffffffffffffffffffffffffffffff169060200190929190803590602001909291905050506111df565b005b61051e600480360360408110156104e857600080fd5b81019080803573ffffffffffffffffffffffffffffffffffffffff16906020019092919080359060200190929190505050611255565b6040518082815260200191505060405180910390f35b6105a06004803603606081101561054a57600080fd5b81019080803573ffffffffffffffffffffffffffffffffffffffff169060200190929190803573ffffffffffffffffffffffffffffffffffffffff169060200190929190803590602001909291905050506112b0565b005b6105ce600480360360208110156105b857600080fd5b81019080803590602001909291905050506112d0565b6040518082815260200191505060405180910390f35b610610600480360360208110156105fa57600080fd5b81019080803590602001909291905050506112f3565b604051808273ffffffffffffffffffffffffffffffffffffffff16815260200191505060405180910390f35b61064461132a565b6040518080602001828103825283818151815260200191508051906020019080838360005b83811015610684578082015181840152602081019050610669565b50505050905090810190601f1680156106b15780820380516001836020036101000a031916815260200191505b509250505060405180910390f35b6106c7611339565b6040518080602001828103825283818151815260200191508051906020019080838360005b838110156107075780820151818401526020810190506106ec565b50505050905090810190601f1680156107345780820380516001836020036101000a031916815260200191505b509250505060405180910390f35b61076e6004803603602081101561075857600080fd5b81019080803590602001909291905050506113db565b60405180821515815260200191505060405180910390f35b6107c86004803603602081101561079c57600080fd5b81019080803573ffffffffffffffffffffffffffffffffffffffff1690602001909291905050506113ed565b6040518082815260200191505060405180910390f35b61082a600480360360408110156107f457600080fd5b81019080803573ffffffffffffffffffffffffffffffffffffffff169060200190929190803590602001909291905050506114c2565b005b6108586004803603602081101561084257600080fd5b81019080803590602001909291905050506114d0565b005b6108626114dc565b6040518080602001828103825283818151815260200191508051906020019080838360005b838110156108a2578082015181840152602081019050610887565b50505050905090810190601f1680156108cf5780820380516001836020036101000a031916815260200191505b509250505060405180910390f35b610929600480360360408110156108f357600080fd5b81019080803573ffffffffffffffffffffffffffffffffffffffff169060200190929190803590602001909291905050506114eb565b005b6109976004803603606081101561094157600080fd5b81019080803573ffffffffffffffffffffffffffffffffffffffff169060200190929190803573ffffffffffffffffffffffffffffffffffffffff169060200190929190803590602001909291905050506114f9565b005b6109a1611509565b6040518080602001828103825283818151815260200191508051906020019080838360005b838110156109e15780820151818401526020810190506109c6565b50505050905090810190601f168015610a0e5780820380516001836020036101000a031916815260200191505b509250505060405180910390f35b610a4860048036036020811015610a3257600080fd5b81019080803590602001909291905050506115ab565b60405180821515815260200191505060405180910390f35b610aae60048036036040811015610a7657600080fd5b81019080803573ffffffffffffffffffffffffffffffffffffffff1690602001909291908035151590602001909291905050506115c0565b005b610bb360048036036080811015610ac657600080fd5b81019080803573ffffffffffffffffffffffffffffffffffffffff169060200190929190803573ffffffffffffffffffffffffffffffffffffffff1690602001909291908035906020019092919080359060200190640100000000811115610b2d57600080fd5b820183602082011115610b3f57600080fd5b80359060200191846001830284011164010000000083111715610b6157600080fd5b91908080601f016020809104026020016040519081016040528093929190818152602001838380828437600081840152601f19601f820116905080830192505050505050509192919290505050611776565b005b610bf760048036036020811015610bcb57600080fd5b81019080803573ffffffffffffffffffffffffffffffffffffffff1690602001909291905050506117ee565b6040518082815260200191505060405180910390f35b610c7960048036036060811015610c2357600080fd5b81019080803573ffffffffffffffffffffffffffffffffffffffff169060200190929190803573ffffffffffffffffffffffffffffffffffffffff16906020019092919080359060200190929190505050611800565b005b610ca760048036036020811015610c9157600080fd5b8101908080359060200190929190505050611810565b604051808273ffffffffffffffffffffffffffffffffffffffff16815260200191505060405180910390f35b610cff60048036036020811015610ce957600080fd5b8101908080359060200190929190505050611822565b6040518080602001828103825283818151815260200191508051906020019080838360005b83811015610d3f578082015181840152602081019050610d24565b50505050905090810190601f168015610d6c5780820380516001836020036101000a031916815260200191505b509250505060405180910390f35b610da660048036036020811015610d9057600080fd5b8101908080359060200190929190505050611af3565b604051808273ffffffffffffffffffffffffffffffffffffffff16815260200191505060405180910390f35b610e3460048036036040811015610de857600080fd5b81019080803573ffffffffffffffffffffffffffffffffffffffff169060200190929190803573ffffffffffffffffffffffffffffffffffffffff169060200190929190505050611b05565b60405180821515815260200191505060405180910390f35b610eae60048036036040811015610e6257600080fd5b81019080803573ffffffffffffffffffffffffffffffffffffffff169060200190929190803573ffffffffffffffffffffffffffffffffffffffff169060200190929190505050611b99565b60405180821515815260200191505060405180910390f35b6000806000837bffffffffffffffffffffffffffffffffffffffffffffffffffffffff19167bffffffffffffffffffffffffffffffffffffffffffffffffffffffff1916815260200190815260200160002060009054906101000a900460ff169050919050565b606060068054600181600116156101000203166002900480601f016020809104026020016040519081016040528092919081815260200182805460018160011615610100020316600290048015610fc55780601f10610f9a57610100808354040283529160200191610fc5565b820191906000526020600020905b815481529060010190602001808311610fa857829003601f168201915b5050505050905090565b6000610fda82611bad565b61102f576040517f08c379a000000000000000000000000000000000000000000000000000000000815260040180806020018281038252602c815260200180613338602c913960400191505060405180910390fd5b6004600083815260200190815260200160002060009054906101000a900473ffffffffffffffffffffffffffffffffffffffff169050919050565b6000611075826112f3565b90508073ffffffffffffffffffffffffffffffffffffffff168373ffffffffffffffffffffffffffffffffffffffff1614156110fc576040517f08c379a00000000000000000000000000000000000000000000000000000000081526004018080602001828103825260218152602001806133bc6021913960400191505060405180910390fd5b8073ffffffffffffffffffffffffffffffffffffffff1661111b611bca565b73ffffffffffffffffffffffffffffffffffffffff16148061114a575061114981611144611bca565b611b05565b5b61119f576040517f08c379a000000000000000000000000000000000000000000000000000000000815260040180806020018281038252603881526020018061328b6038913960400191505060405180910390fd5b6111a98383611bd2565b505050565b6111b882826115c0565b5050565b60006111c782610fcf565b9050919050565b60006111da6002611c8b565b905090565b6111f06111ea611bca565b82611ca0565b611245576040517f08c379a00000000000000000000000000000000000000000000000000000000081526004018080602001828103825260318152602001806133dd6031913960400191505060405180910390fd5b611250838383611d94565b505050565b60006112a882600160008673ffffffffffffffffffffffffffffffffffffffff1673ffffffffffffffffffffffffffffffffffffffff168152602001908152602001600020611fd790919063ffffffff16565b905092915050565b6112cb83838360405180602001604052806000815250611776565b505050565b6000806112e7836002611ff290919063ffffffff16565b50905080915050919050565b6000611323826040518060600160405280602981526020016132ed6029913960026120209092919063ffffffff16565b9050919050565b6060611334610f2d565b905090565b606060098054600181600116156101000203166002900480601f0160208091040260200160405190810160405280929190818152602001828054600181600116156101000203166002900480156113d15780601f106113a6576101008083540402835291602001916113d1565b820191906000526020600020905b8154815290600101906020018083116113b457829003601f168201915b5050505050905090565b60006113e682611bad565b9050919050565b60008073ffffffffffffffffffffffffffffffffffffffff168273ffffffffffffffffffffffffffffffffffffffff161415611474576040517f08c379a000000000000000000000000000000000000000000000000000000000815260040180806020018281038252602a8152602001806132c3602a913960400191505060405180910390fd5b6114bb600160008473ffffffffffffffffffffffffffffffffffffffff1673ffffffffffffffffffffffffffffffffffffffff168152602001908152602001600020612040565b9050919050565b6114cc8282612055565b5050565b6114d981612073565b50565b60606114e6611509565b905090565b6114f5828261106a565b5050565b6115048383836112b0565b505050565b606060078054600181600116156101000203166002900480601f0160208091040260200160405190810160405280929190818152602001828054600181600116156101000203166002900480156115a15780601f10611576576101008083540402835291602001916115a1565b820191906000526020600020905b81548152906001019060200180831161158457829003601f168201915b5050505050905090565b60006115b733836121ad565b60019050919050565b6115c8611bca565b73ffffffffffffffffffffffffffffffffffffffff168273ffffffffffffffffffffffffffffffffffffffff161415611669576040517f08c379a00000000000000000000000000000000000000000000000000000000081526004018080602001828103825260198152602001807f4552433732313a20617070726f766520746f2063616c6c65720000000000000081525060200191505060405180910390fd5b8060056000611676611bca565b73ffffffffffffffffffffffffffffffffffffffff1673ffffffffffffffffffffffffffffffffffffffff16815260200190815260200160002060008473ffffffffffffffffffffffffffffffffffffffff1673ffffffffffffffffffffffffffffffffffffffff16815260200190815260200160002060006101000a81548160ff0219169083151502179055508173ffffffffffffffffffffffffffffffffffffffff16611723611bca565b73ffffffffffffffffffffffffffffffffffffffff167f17307eab39ab6107e8899845ad3d59bd9653f200f220920489ca2b5937696c318360405180821515815260200191505060405180910390a35050565b611787611781611bca565b83611ca0565b6117dc576040517f08c379a00000000000000000000000000000000000000000000000000000000081526004018080602001828103825260318152602001806133dd6031913960400191505060405180910390fd5b6117e8848484846123a1565b50505050565b60006117f9826113ed565b9050919050565b61180b8383836111df565b505050565b600061181b826112f3565b9050919050565b606061182d82611bad565b611882576040517f08c379a000000000000000000000000000000000000000000000000000000000815260040180806020018281038252602f81526020018061338d602f913960400191505060405180910390fd5b6060600860008481526020019081526020016000208054600181600116156101000203166002900480601f01602080910402602001604051908101604052809291908181526020018280546001816001161561010002031660029004801561192b5780601f106119005761010080835404028352916020019161192b565b820191906000526020600020905b81548152906001019060200180831161190e57829003601f168201915b50505050509050606061193c611339565b9050600081511415611952578192505050611aee565b600082511115611a235780826040516020018083805190602001908083835b602083106119945780518252602082019150602081019050602083039250611971565b6001836020036101000a03801982511681845116808217855250505050505090500182805190602001908083835b602083106119e557805182526020820191506020810190506020830392506119c2565b6001836020036101000a0380198251168184511680821785525050505050509050019250505060405160208183030381529060405292505050611aee565b80611a2d85612413565b6040516020018083805190602001908083835b60208310611a635780518252602082019150602081019050602083039250611a40565b6001836020036101000a03801982511681845116808217855250505050505090500182805190602001908083835b60208310611ab45780518252602082019150602081019050602083039250611a91565b6001836020036101000a03801982511681845116808217855250505050505090500192505050604051602081830303815290604052925050505b919050565b6000611afe826112f3565b9050919050565b6000600560008473ffffffffffffffffffffffffffffffffffffffff1673ffffffffffffffffffffffffffffffffffffffff16815260200190815260200160002060008373ffffffffffffffffffffffffffffffffffffffff1673ffffffffffffffffffffffffffffffffffffffff16815260200190815260200160002060009054906101000a900460ff16905092915050565b6000611ba58383611b05565b905092915050565b6000611bc382600261257990919063ffffffff16565b9050919050565b600033905090565b816004600083815260200190815260200160002060006101000a81548173ffffffffffffffffffffffffffffffffffffffff021916908373ffffffffffffffffffffffffffffffffffffffff160217905550808273ffffffffffffffffffffffffffffffffffffffff16611c45836112f3565b73ffffffffffffffffffffffffffffffffffffffff167f8c5be1e5ebec7d5bd14f71427d1e84f3dd0314c0f7b2291e5b200ac8c7c3b92560405160405180910390a45050565b6000611c9982600001612593565b9050919050565b6000611cab82611bad565b611d00576040517f08c379a000000000000000000000000000000000000000000000000000000000815260040180806020018281038252602c81526020018061325f602c913960400191505060405180910390fd5b6000611d0b836112f3565b90508073ffffffffffffffffffffffffffffffffffffffff168473ffffffffffffffffffffffffffffffffffffffff161480611d7a57508373ffffffffffffffffffffffffffffffffffffffff16611d6284610fcf565b73ffffffffffffffffffffffffffffffffffffffff16145b80611d8b5750611d8a8185611b05565b5b91505092915050565b8273ffffffffffffffffffffffffffffffffffffffff16611db4826112f3565b73ffffffffffffffffffffffffffffffffffffffff1614611e20576040517f08c379a00000000000000000000000000000000000000000000000000000000081526004018080602001828103825260298152602001806133646029913960400191505060405180910390fd5b600073ffffffffffffffffffffffffffffffffffffffff168273ffffffffffffffffffffffffffffffffffffffff161415611ea6576040517f08c379a00000000000000000000000000000000000000000000000000000000081526004018080602001828103825260248152602001806132156024913960400191505060405180910390fd5b611eb18383836125a4565b611ebc600082611bd2565b611f0d81600160008673ffffffffffffffffffffffffffffffffffffffff1673ffffffffffffffffffffffffffffffffffffffff1681526020019081526020016000206125a990919063ffffffff16565b50611f5f81600160008573ffffffffffffffffffffffffffffffffffffffff1673ffffffffffffffffffffffffffffffffffffffff1681526020019081526020016000206125c390919063ffffffff16565b50611f76818360026125dd9092919063ffffffff16565b50808273ffffffffffffffffffffffffffffffffffffffff168473ffffffffffffffffffffffffffffffffffffffff167fddf252ad1be2c89b69c2b068fc378daa952ba7f163c4a11628f55a4df523b3ef60405160405180910390a4505050565b6000611fe68360000183612612565b60019004905092915050565b6000806000806120058660000186612695565b91509150816001900481600190049350935050509250929050565b600061203384600001846001028461272e565b6001900490509392505050565b600061204e82600001612824565b9050919050565b61206f828260405180602001604052806000815250612835565b5050565b600061207e826112f3565b905061208c816000846125a4565b612097600083611bd2565b600060086000848152602001908152602001600020805460018160011615610100020316600290049050146120e6576008600083815260200190815260200160002060006120e5919061315b565b5b61213782600160008473ffffffffffffffffffffffffffffffffffffffff1673ffffffffffffffffffffffffffffffffffffffff1681526020019081526020016000206125a990919063ffffffff16565b5061214c8260026128a690919063ffffffff16565b5081600073ffffffffffffffffffffffffffffffffffffffff168273ffffffffffffffffffffffffffffffffffffffff167fddf252ad1be2c89b69c2b068fc378daa952ba7f163c4a11628f55a4df523b3ef60405160405180910390a45050565b600073ffffffffffffffffffffffffffffffffffffffff168273ffffffffffffffffffffffffffffffffffffffff161415612250576040517f08c379a00000000000000000000000000000000000000000000000000000000081526004018080602001828103825260208152602001807f4552433732313a206d696e7420746f20746865207a65726f206164647265737381525060200191505060405180910390fd5b61225981611bad565b156122cc576040517f08c379a000000000000000000000000000000000000000000000000000000000815260040180806020018281038252601c8152602001807f4552433732313a20746f6b656e20616c7265616479206d696e7465640000000081525060200191505060405180910390fd5b6122d8600083836125a4565b61232981600160008573ffffffffffffffffffffffffffffffffffffffff1673ffffffffffffffffffffffffffffffffffffffff1681526020019081526020016000206125c390919063ffffffff16565b50612340818360026125dd9092919063ffffffff16565b50808273ffffffffffffffffffffffffffffffffffffffff16600073ffffffffffffffffffffffffffffffffffffffff167fddf252ad1be2c89b69c2b068fc378daa952ba7f163c4a11628f55a4df523b3ef60405160405180910390a45050565b6123ac848484611d94565b6123b8848484846128c0565b61240d576040517f08c379a00000000000000000000000000000000000000000000000000000000081526004018080602001828103825260328152602001806131e36032913960400191505060405180910390fd5b50505050565b6060600082141561245b576040518060400160405280600181526020017f30000000000000000000000000000000000000000000000000000000000000008152509050612574565b600082905060005b60008214612485578080600101915050600a828161247d57fe5b049150612463565b60608167ffffffffffffffff8111801561249e57600080fd5b506040519080825280601f01601f1916602001820160405280156124d15781602001600182028036833780820191505090505b50905060006001830390508593505b6000841461256c57600a84816124f257fe5b066030017f0100000000000000000000000000000000000000000000000000000000000000028282806001900393508151811061252b57fe5b60200101907effffffffffffffffffffffffffffffffffffffffffffffffffffffffffffff1916908160001a905350600a848161256457fe5b0493506124e0565b819450505050505b919050565b600061258b8360000183600102612b11565b905092915050565b600081600001805490509050919050565b505050565b60006125bb8360000183600102612b34565b905092915050565b60006125d58360000183600102612c1c565b905092915050565b600061260984600001846001028473ffffffffffffffffffffffffffffffffffffffff16600102612c8c565b90509392505050565b600081836000018054905011612673576040517f08c379a00000000000000000000000000000000000000000000000000000000081526004018080602001828103825260228152602001806131c16022913960400191505060405180910390fd5b82600001828154811061268257fe5b9060005260206000200154905092915050565b600080828460000180549050116126f7576040517f08c379a00000000000000000000000000000000000000000000000000000000081526004018080602001828103825260228152602001806133166022913960400191505060405180910390fd5b600084600001848154811061270857fe5b906000526020600020906002020190508060000154816001015492509250509250929050565b600080846001016000858152602001908152602001600020549050600081141583906127f5576040517f08c379a00000000000000000000000000000000000000000000000000000000081526004018080602001828103825283818151815260200191508051906020019080838360005b838110156127ba57808201518184015260208101905061279f565b50505050905090810190601f1680156127e75780820380516001836020036101000a031916815260200191505b509250505060405180910390fd5b5084600001600182038154811061280857fe5b9060005260206000209060020201600101549150509392505050565b600081600001805490509050919050565b61283f83836121ad565b61284c60008484846128c0565b6128a1576040517f08c379a00000000000000000000000000000000000000000000000000000000081526004018080602001828103825260328152602001806131e36032913960400191505060405180910390fd5b505050565b60006128b88360000183600102612d68565b905092915050565b60006128e18473ffffffffffffffffffffffffffffffffffffffff16612e81565b6128ee5760019050612b09565b6060612a7463150b7a027c01000000000000000000000000000000000000000000000000000000000261291f611bca565b888787604051602401808573ffffffffffffffffffffffffffffffffffffffff1681526020018473ffffffffffffffffffffffffffffffffffffffff16815260200183815260200180602001828103825283818151815260200191508051906020019080838360005b838110156129a3578082015181840152602081019050612988565b50505050905090810190601f1680156129d05780820380516001836020036101000a031916815260200191505b5095505050505050604051602081830303815290604052907bffffffffffffffffffffffffffffffffffffffffffffffffffffffff19166020820180517bffffffffffffffffffffffffffffffffffffffffffffffffffffffff83818316178352505050506040518060600160405280603281526020016131e3603291398773ffffffffffffffffffffffffffffffffffffffff16612e949092919063ffffffff16565b90506000818060200190516020811015612a8d57600080fd5b8101908080519060200190929190505050905063150b7a027c0100000000000000000000000000000000000000000000000000000000027bffffffffffffffffffffffffffffffffffffffffffffffffffffffff1916817bffffffffffffffffffffffffffffffffffffffffffffffffffffffff191614925050505b949350505050565b600080836001016000848152602001908152602001600020541415905092915050565b60008083600101600084815260200190815260200160002054905060008114612c105760006001820390506000600186600001805490500390506000866000018281548110612b7f57fe5b9060005260206000200154905080876000018481548110612b9c57fe5b9060005260206000200181905550600183018760010160008381526020019081526020016000208190555086600001805480612bd457fe5b60019003818190600052602060002001600090559055866001016000878152602001908152602001600020600090556001945050505050612c16565b60009150505b92915050565b6000612c288383612eac565b612c81578260000182908060018154018082558091505060019003906000526020600020016000909190919091505582600001805490508360010160008481526020019081526020016000208190555060019050612c86565b600090505b92915050565b6000808460010160008581526020019081526020016000205490506000811415612d3357846000016040518060400160405280868152602001858152509080600181540180825580915050600190039060005260206000209060020201600090919091909150600082015181600001556020820151816001015550508460000180549050856001016000868152602001908152602001600020819055506001915050612d61565b82856000016001830381548110612d4657fe5b90600052602060002090600202016001018190555060009150505b9392505050565b60008083600101600084815260200190815260200160002054905060008114612e755760006001820390506000600186600001805490500390506000866000018281548110612db357fe5b9060005260206000209060020201905080876000018481548110612dd357fe5b9060005260206000209060020201600082015481600001556001820154816001015590505060018301876001016000836000015481526020019081526020016000208190555086600001805480612e2657fe5b6001900381819060005260206000209060020201600080820160009055600182016000905550509055866001016000878152602001908152602001600020600090556001945050505050612e7b565b60009150505b92915050565b600080823b905060008111915050919050565b6060612ea38484600085612ecf565b90509392505050565b600080836001016000848152602001908152602001600020541415905092915050565b6060823073ffffffffffffffffffffffffffffffffffffffff16311015612f41576040517f08c379a00000000000000000000000000000000000000000000000000000000081526004018080602001828103825260268152602001806132396026913960400191505060405180910390fd5b612f4a85612e81565b612fbc576040517f08c379a000000000000000000000000000000000000000000000000000000000815260040180806020018281038252601d8152602001807f416464726573733a2063616c6c20746f206e6f6e2d636f6e747261637400000081525060200191505060405180910390fd5b600060608673ffffffffffffffffffffffffffffffffffffffff1685876040518082805190602001908083835b6020831061300c5780518252602082019150602081019050602083039250612fe9565b6001836020036101000a03801982511681845116808217855250505050505090500191505060006040518083038185875af1925050503d806000811461306e576040519150601f19603f3d011682016040523d82523d6000602084013e613073565b606091505b509150915061308382828661308f565b92505050949350505050565b6060831561309f57829050613154565b6000835111156130b25782518084602001fd5b816040517f08c379a00000000000000000000000000000000000000000000000000000000081526004018080602001828103825283818151815260200191508051906020019080838360005b838110156131195780820151818401526020810190506130fe565b50505050905090810190601f1680156131465780820380516001836020036101000a031916815260200191505b509250505060405180910390fd5b9392505050565b50805460018160011615610100020316600290046000825580601f1061318157506131a0565b601f01602090049060005260206000209081019061319f91906131a3565b5b50565b5b808211156131bc5760008160009055506001016131a4565b509056fe456e756d657261626c655365743a20696e646578206f7574206f6620626f756e64734552433732313a207472616e7366657220746f206e6f6e20455243373231526563656976657220696d706c656d656e7465724552433732313a207472616e7366657220746f20746865207a65726f2061646472657373416464726573733a20696e73756666696369656e742062616c616e636520666f722063616c6c4552433732313a206f70657261746f7220717565727920666f72206e6f6e6578697374656e7420746f6b656e4552433732313a20617070726f76652063616c6c6572206973206e6f74206f776e6572206e6f7220617070726f76656420666f7220616c6c4552433732313a2062616c616e636520717565727920666f7220746865207a65726f20616464726573734552433732313a206f776e657220717565727920666f72206e6f6e6578697374656e7420746f6b656e456e756d657261626c654d61703a20696e646578206f7574206f6620626f756e64734552433732313a20617070726f76656420717565727920666f72206e6f6e6578697374656e7420746f6b656e4552433732313a207472616e73666572206f6620746f6b656e2074686174206973206e6f74206f776e4552433732314d657461646174613a2055524920717565727920666f72206e6f6e6578697374656e7420746f6b656e4552433732313a20617070726f76616c20746f2063757272656e74206f776e65724552433732313a207472616e736665722063616c6c6572206973206e6f74206f776e6572206e6f7220617070726f766564a26469706673582212203766e285a86f64ca27b56468911054365e35826c34cf8b4f2cc18bb638d3712c64736f6c63430007000033",
  "immutableReferences": {},
  "source": "// SPDX-License-Identifier: GPL-3.0\npragma solidity >=0.5.0 < 0.9.0;\n\n\nimport \"@openzeppelin/contracts/token/ERC721/ERC721.sol\";\n\ncontract Token is ERC721{\n    \n    constructor() ERC721(\"LaunchNodes\", \"LNs\") public{}\n    \n    function mintTokens(uint _tokenId) public returns(bool success){\n        \n        _mint(msg.sender, _tokenId);\n        \n        return true;\n    }\n    \n    function OwnerOf(uint256 _tokenId) public view returns (address) {\n        return ownerOf(_tokenId);\n    }\n    \n    function checkTokenExistance(uint _tokenId) public view returns (bool){\n        return _exists(_tokenId);\n    }\n    \n    function tokenName() public view returns (string memory) {\n        return name();\n    }\n    \n    function tokenSymbol() public view returns (string memory) {\n        return symbol();\n    }\n    \n    function balanceOfToken(address _owner) public view returns (uint256) {\n        return balanceOf(_owner);\n    }\n    \n    function ownerOfToken(uint256 _tokenId) public view returns (address) {\n        return ownerOf(_tokenId);\n    }\n    \n    \n    function _approveAddress(address _to, uint _tokenId) public{\n        approve(_to, _tokenId);\n    }\n    \n    function GetApproved(uint _tokenId) public view  returns(address){\n        return getApproved(_tokenId);\n    }\n    \n    function SetApprovalForAll(address _operater, bool _approved) public{\n        setApprovalForAll(_operater, _approved);\n    }\n    \n    function IsApprovedForAll(address _owner, address _operator) public view returns (bool) {\n        return isApprovedForAll(_owner, _operator);\n    }\n    \n    function TransferFrom(address _from, address _to, uint256 _tokenId) public {\n       transferFrom(_from, _to, _tokenId);\n    }\n    \n    function SafeTransferFrom(address _from, address _to, uint256 _tokenId) public {\n        safeTransferFrom(_from, _to, _tokenId);\n    }\n    \n    function IsApprovedOrOwner(address _spender, uint256 _tokenId) internal view returns (bool) {\n        \n        return _isApprovedOrOwner(_spender, _tokenId);\n    }\n    \n    function SafeMint(address _to, uint256 _tokenId) public {\n        _safeMint(_to, _tokenId);\n    }\n    \n    \n    \n    function burnToken(uint _tokenId) public {\n        _burn(_tokenId);\n    }\n    \n    \n    \n}",
  "sourcePath": "F:/Launchnodes/erc20-token/erc721-token/src/contracts/Token.sol",
  "compiler": {
    "name": "solc",
    "version": "0.7.0+commit.9e61f92b.Emscripten.clang"
  },
  "schemaVersion": "3.2.3",
  "updatedAt": "2021-06-04T10:04:35.213Z",
  "networkType": "ethereum",
  "devdoc": {
    "kind": "dev",
    "methods": {
      "approve(address,uint256)": {
        "details": "See {IERC721-approve}."
      },
      "balanceOf(address)": {
        "details": "See {IERC721-balanceOf}."
      },
      "baseURI()": {
        "details": "Returns the base URI set via {_setBaseURI}. This will be automatically added as a prefix in {tokenURI} to each token's URI, or to the token ID if no specific URI is set for that token ID."
      },
      "getApproved(uint256)": {
        "details": "See {IERC721-getApproved}."
      },
      "isApprovedForAll(address,address)": {
        "details": "See {IERC721-isApprovedForAll}."
      },
      "name()": {
        "details": "See {IERC721Metadata-name}."
      },
      "ownerOf(uint256)": {
        "details": "See {IERC721-ownerOf}."
      },
      "safeTransferFrom(address,address,uint256)": {
        "details": "See {IERC721-safeTransferFrom}."
      },
      "safeTransferFrom(address,address,uint256,bytes)": {
        "details": "See {IERC721-safeTransferFrom}."
      },
      "setApprovalForAll(address,bool)": {
        "details": "See {IERC721-setApprovalForAll}."
      },
      "supportsInterface(bytes4)": {
        "details": "See {IERC165-supportsInterface}. Time complexity O(1), guaranteed to always use less than 30 000 gas."
      },
      "symbol()": {
        "details": "See {IERC721Metadata-symbol}."
      },
      "tokenByIndex(uint256)": {
        "details": "See {IERC721Enumerable-tokenByIndex}."
      },
      "tokenOfOwnerByIndex(address,uint256)": {
        "details": "See {IERC721Enumerable-tokenOfOwnerByIndex}."
      },
      "tokenURI(uint256)": {
        "details": "See {IERC721Metadata-tokenURI}."
      },
      "totalSupply()": {
        "details": "See {IERC721Enumerable-totalSupply}."
      },
      "transferFrom(address,address,uint256)": {
        "details": "See {IERC721-transferFrom}."
      }
    },
    "version": 1
  },
  "userdoc": {
    "kind": "user",
    "methods": {},
    "version": 1
  }
}